:020000040800F2
:100000007837002439030008AF400008933F000808
:10001000AD400008230600088D4D000800000000D8
:10002000000000000000000000000000F542000891
:10003000B10A000800000000B1400008F7420008C3
:100040005703000857030008570300085703000828
:100050005703000857030008570300085703000818
:100060005703000857030008570300086D060008EF
:1000700057030008570300085703000857030008F8
:1000800057030008570300085703000857030008E8
:1000900057030008570300085703000857030008D8
:1000A00057030008570300085703000857030008C8
:1000B00057030008570300085703000857030008B8
:1000C00057030008570300085703000857030008A8
:1000D0005703000857030008570300085703000898
:1000E00057030008570300080000000057030008EA
:1000F0005703000857030008570300085703000878
:100100005703000857030008570300085703000867
:100110005703000857030008570300085703000857
:100120005703000857030008570300085703000847
:100130005703000857030008570300085703000837
:1001400000000000000000000000000000000000AF
:10015000570300085703000857030008C14C000864
:100160005703000857030008570300085703000807
:100170005703000857030008570300080000000059
:1001800057030008570300085703000857030008E7
:1001900057030008570300085703000857030008D7
:1001A00057030008570300085703000857030008C7
:1001B00057030008570300085703000857030008B7
:1001C00057030008570300085703000857030008A7
:1001D0005703000857030008570300085703000897
:1001E0005703000857030008570300085703000887
:1001F0005703000857030008570300085703000877
:100200005703000857030008570300085703000866
:100210005703000857030008570300085703000856
:1002200057030008570300085703000800000000A8
:100230005703000857030008000000005703000898
:100240005703000857030008570300085703000826
:100250005703000857030008570300085703000816
:100260005703000857030008570300085703000806
:100270005703000857030008570300080000000058
:100280005703000857030008570300080000000048
:10029000000000005703000800F002F800F03CF8EE
:1002A0000AA090E8000C82448344AAF10107DA45D1
:1002B00001D100F031F8AFF2090EBAE80F0013F0E7
:1002C000010F18BFFB1A43F00103184790560000B6
:1002D000B0560000103A24BF78C878C1FAD8520747
:1002E00024BF30C830C144BF04680C6070470000B0
:1002F0000023002400250026103A28BF78C1FBD82F
:10030000520728BF30C148BF0B6070471FB504F0CB
:100310007FFF1FBD10B510BD00F04AF91146FFF771
:10032000F5FF04F017FF00F068F903B4FFF7F2FFE0
:1003300003BC00F06FF900000A4880470A48804774
:100340000A480047FEE7FEE7FEE7FEE7FEE7FEE7B6
:10035000FEE7FEE7FEE7FEE705480649064A074BCB
:1003600070470000B90A0008A54300089902000878
:1003700078070024783700247817002478170024A1
:1003800053EA020C00F069802DE9F04B4FF00006B3
:10039000002B1FBFB3FA83F503FA05F424FA05F620
:1003A0005E4012BF1643B2FA82F502FA05F4C5F1B7
:1003B00020051EBF22FA05FC44EA0C04203556EA4B
:1003C000044C4FEA144418BF641C4FF000084FF06F
:1003D0000009904271EB030C39D3002919BFB1FA1F
:1003E00081F701FA07F6B0FA80F700FA07F6C7F1CD
:1003F00020071EBF20FA07FC46EA0C062037B6FB92
:10040000F4FCA7EB0507103F07F01F0BCBF120060C
:100410000CFA0BFB2CFA06F644BFB3460026202F3D
:10042000A4BF5E464FF0000B5BEA060C08BF4FF01E
:10043000010B19EB0B09ABFB027C48EB0608C01B58
:1004400006FB02CC0BFB03CC71EB0C01C1E70B46A6
:10045000024641464846BDE8F08B13B54FF0000018
:100460004FF00001AFF30080BDE81C407047032A45
:1004700040F2308010F0030C00F0158011F8013BC1
:10048000BCF1020F624498BF11F801CB00F8013BA8
:1004900038BF11F8013BA2F1040298BF00F801CB6C
:1004A00038BF00F8013B11F0030300F04F80083A19
:1004B000C0F0088051F8043B083A51F804CBA0E89A
:1004C0000810F5E7121D5CBF51F8043B40F8043BEF
:1004D000AFF30080D20724BF11F8013B11F801CB24
:1004E00048BF11F8012B24BF00F8013B00F801CBF5
:1004F00048BF00F8012B70474FF0000200B51346CB
:1005000094469646203922BFA0E80C50A0E80C5033
:10051000B1F12001BFF4F7AF090728BFA0E80C50E4
:1005200048BF0CC05DF804EB890028BF40F8042BDD
:1005300008BF704748BF20F8022B11F0804F18BF4A
:1005400000F8012B704770477047704710B5203A8C
:10055000C0F00B80B1E81850203AA0E81850B1E87C
:100560001850A0E81850BFF4F5AF5FEA027C24BF32
:10057000B1E81850A0E8185044BF18C918C0BDE829
:1005800010405FEA827C24BF51F8043B40F8043BF2
:1005900008BF7047D20728BF31F8023B48BF11F8A7
:1005A000012B28BF20F8023B48BF00F8012B704701
:1005B000754600F02BF8AE4605006946534620F01C
:1005C0000700854618B020B5FFF7C6FEBDE82040FD
:1005D0004FF000064FF000074FF000084FF0000BFF
:1005E00021F00701AC46ACE8C009ACE8C009ACE8B2
:1005F000C009ACE8C0098D46704710B50446AFF39A
:1006000000802046BDE81040FFF78FBE00487047CD
:100610001807002401491820ABBEFEE7260002009F
:100620007047FEE730B50346074D0020024608E05C
:100630009C5C521C84EA102435F8144084EA0020A3
:1006400080B28A42F4DB30BD5C53000830B503460B
:10065000054D0020024603E09C5C6040521C285C73
:100660008A42F9DB30BD00005C520008014800F00E
:1006700025BD0000D4010024294A016891423AD0E6
:10068000274A1832914236D0254A3032914232D030
:10069000234A483291422ED0214A603291422AD0D8
:1006A0001F4A7832914226D01D4A9032914222D080
:1006B0001B4AA83291421ED01A4A91421BD0194AB5
:1006C0001832914217D0174A3032914213D0154A4E
:1006D000483291420FD0134A603291420BD0114AF6
:1006E0007832914207D00F4A9032914203D00D4A9E
:1006F000A832914211D1CAB21823103AB2FBF3F2D8
:100700006FF30901032A02F00703074AD25CC265AE
:1007100000D9091D81650846704721F0FF01F9E7FE
:1007200010000240100402401A52000830B5224A5C
:10073000012301689142CAB21BD01F4C1434A1425C
:1007400017D01D4C2834A14213D01B4C3C34A1427D
:100750000FD0194C5034A1420BD0174C6434A14235
:1007600007D0154C7834A14203D0134C8C34A142ED
:100770000CD11421114C083AB2FBF1F10F4A80322E
:1007800001F01F0504EB8101AB4010E00C4D182473
:10079000103A0D44B2FBF4F1A82D00D80831094AF3
:1007A00001F01F0402EB8101064AA3408032603051
:1007B00080E80E0030BD000008540258005802586E
:1007C000F0FBFDBF0008024010B50279531E072B55
:1007D0002DD8174C0168A1421BD0154C1434A142EE
:1007E00017D0134C2834A14213D0114C3C34A142F1
:1007F0000FD00F4C5034A1420BD00D4C6434A142A9
:1008000007D00B4C7834A14203D0094C8C34A14260
:1008100003D10849074C443102E00749064C4431F2
:1008200004EB8202C0E91B2101219940416710BD00
:1008300008540258FC580258FC08024010B583695D
:100840004FF0C074826A0146002053B1B3F5005FD7
:1008500015D072B1012A0CD0022A0AD0032A09D17C
:1008600004E01AB1012A06D0022A03D1C96AC901DB
:1008700000D5012010BDC96AA142FAD010BD002ADE
:10088000F7D0012AF2D0022AF3D0032AF3D010BD08
:100890002DE9F04F804E804FDFF8FC911836DFF8DD
:1008A000F8A148370468856D0AF1300ADFF8ECB129
:1008B0004C45DFF8ECC1DFF8ECE16DD0B4426BD011
:1008C000544569D0BC4267D0DFF8D081A8F1180840
:1008D000444561D05C455FD064455DD074455BD0D4
:1008E000DFF8C481444557D0DFF8BC8108F118080F
:1008F000444551D0DFF8B08108F1300844454BD071
:10090000DFF8A48108F14808444545D0DFF8988114
:1009100008F1600844453FD0DFF88C8108F1780881
:10092000444539D0DFF8808108F19008444533D040
:10093000DFF8748108F1A80844452DD0DFF86C81F8
:10094000444529D0DFF8648108F11408444523D0D8
:10095000DFF8588108F1280844451DD0DFF84C81A4
:1009600008F13C08444517D0DFF8408108F15008F1
:10097000444511D0DFF8348108F1640844450BD0B8
:10098000DFF8288108F17808444505D0DFF81C819C
:1009900008F18C08444509D1D0E91948C4F804800D
:1009A000C46E1CB1D0E91C48C4F8048004684C45EE
:1009B0002ED0B4422CD054452AD0BC4228D0374E39
:1009C000183EB44224D05C4522D0644520D0744502
:1009D0001ED0354EB4421BD0334E1836B44217D019
:1009E000314E3036B44213D02F4E4836B4420FD079
:1009F0002D4E6036B4420BD02B4E7836B44207D021
:100A0000294E9036B44203D0274EA836B44215D1B1
:100A100090F85C603F2406F01F06B440AC600468A8
:100A2000256825F4802525602EE09A600068C16065
:100A3000BDE8F08F99600068C260F9E71B4EB442D0
:100A40001BD01A4E1436B44217D0184E2836B44272
:100A500013D0164E3C36B4420FD0144E5036B4422A
:100A60000BD0124E6436B44207D0104E7836B442E2
:100A700003D00E4E8C36B442DAD190F85C6001247B
:100A800006F01F06B4406C60046863608368402B06
:100A90000368CFD1C9E7000010000240880002407F
:100AA000A0000240B800024010040240085402585E
:100AB000704772B6FEE7000005480549083902682C
:100AC00042F00202026008688004FCD57047000012
:100AD0000C4802582DE9F84F044601F0CFFA009077
:100AE0003CB194F83500022806D0802161650020D1
:100AF000E4E00120BDE8F88FC74DC74EC649183560
:100B000020683036DFF81483DFF814938842DFF86A
:100B100014A3DFF814B32ED0A8422CD0B0422AD0B0
:100B2000404528D0484526D0504524D0584522D0AD
:100B3000BD4A183290421ED0BC4A90421BD0BB4ADC
:100B40001832904217D0B94A3032904213D0B74A87
:100B5000483290420FD0B54A603290420BD0B34A2F
:100B60007832904207D0B14A9032904203D0AF4AD7
:100B7000A832904209D1026822F01E020260206869
:100B8000426922F08002426103E0026822F00E0214
:100B9000026027688F4238464DD0A8424BD0B04201
:100BA00049D0404547D0484545D0504543D05845A9
:100BB00041D09D4A183290423DD09C4A90423AD052
:100BC0009A4A1832904236D0984A3032904232D007
:100BD000964A483290422ED0944A603290422AD0AF
:100BE000924A7832904226D0904A9032904222D057
:100BF0008E4AA83290421ED08D4A90421BD08C4A19
:100C00001432904217D08A4A2832904213D0884A30
:100C10003C3290420FD0864A503290420BD0844AE8
:100C20006432904207D0824A7832904203D0804AA0
:100C30008C32974204D1206E026822F480720260E6
:100C400075492068884228D0A84226D0B04224D0D6
:100C5000404522D0484520D050451ED058451CD094
:100C600071491831884218D07049884215D06F49AF
:100C70001831884211D06D49303188420DD06B490E
:100C80004831884209D069496031884205D06749B6
:100C90007831884201D065499031016821F0010125
:100CA00001600EE001F0EAF90099401A052808D920
:100CB000202262650321002084F8351084F8340076
:100CC00017E73868C007EDD1534A012120689042E8
:100CD0002ED0A8422CD0B0422AD0404528D048453A
:100CE00026D0504524D0584522D04F4B1833984237
:100CF0001ED04E4B98421BD04C4B1833984217D005
:100D00004A4B3033984213D0484B483398420FD067
:100D1000464B603398420BD0444B7833984207D00F
:100D2000424B9033984203D0404BA833984208D1AD
:100D300094F85C703F23A06D07F01F07BB408360F1
:100D400007E094F85C30A06D03F01F0301FA03F391
:100D50004360206890424DD0A8424BD0B04249D069
:100D6000404547D0484545D0504543D0584541D0EF
:100D70002D4A183290423DD02C4A90423AD02B4A0C
:100D80001832904236D0294A3032904232D0274A27
:100D9000483290422ED0254A603290422AD0234ACF
:100DA0007832904226D0214A9032904222D01F4A77
:100DB000A83290421ED01E4A90421BD01C4A1432C8
:100DC000904217D01A4A2832904213D0184A3C3227
:100DD00090420FD0164A503290420BD0144A6432DF
:100DE000904207D0124A7832904203D0104A8C3297
:100DF00090420BD1D4E919024260E06E30B1026832
:100E000022F480720260D4E91C024260002084F85F
:100E1000351084F834006DE610000240580002409E
:100E20007000024088000240A0000240100402400E
:100E3000085402582DE9F05F28B190F835100229C6
:100E400004D0802141650120BDE8F09F904C904B7B
:100E50000168183C18338E4ADFF83C92A1428D4C51
:100E6000DFF838E28E4FDFF83CB2DFF83CA28F4D5E
:100E70008F4E31D091422FD099422DD0A1422BD00C
:100E8000494529D0714527D0B94225D0DFF810C295
:100E90000CF1180C61451FD0DFF808C2ACF1600CF2
:100EA000614519D0DFF8FCC1ACF1480C614513D0A5
:100EB000DFF8F0C1ACF1300C61450DD0DFF8E4C1D2
:100EC000ACF1180C614507D0594505D0514503D008
:100ED000A94201D0B1422CD1DFF8B4C14FF00408CF
:100EE00080F83580ACF1180C61451DD091421BD0C3
:100EF000994219D0A14217D0494515D0714513D058
:100F0000B94211D06648183081420DD0654860382A
:100F1000814209D063484838814205D06148303861
:100F2000814201D05F481838086820F0010008604D
:100F3000ABE0D1F800C02CF00E08DFF854C1C1F8C6
:100F40000080ACF1180C0168614527D0914225D092
:100F5000994223D0A14221D049451FD071451DD0CF
:100F6000B9421BD0DFF838C10CF1180C614515D01F
:100F7000DFF830C1ACF1600C61450FD0DFF824C15F
:100F8000ACF1480C614509D0DFF818C1ACF1300C68
:100F9000614503D0DFF80CC1ACF1180CD1F800C0EA
:100FA0002CF0010CC1F800C0DFF8E4804FF0010C18
:100FB0000168A8F11808414546D0914244D09942B1
:100FC00042D0A14240D049453ED071453CD0B942C3
:100FD0003AD0334A1832914236D0324A603A91427E
:100FE00032D0304A483A91422ED02E4A303A91427D
:100FF0002AD02C4A183A914226D0594524D051453E
:1010000022D0A94220D0B1421ED02A4A91421BD000
:10101000284A1432914217D0264A2832914213D0DE
:10102000244A3C3291420FD0224A503291420BD096
:10103000204A6432914207D01E4A7832914203D04E
:101040001C4A8C32914218D1016E0A6822F48072D7
:101050000A6090F85C20816D02F01F020CFA02F227
:101060004A60D0E919124A60C16E31B10A6822F4AF
:1010700080720A60D0E91C124A600022016D80F87B
:1010800035C080F8342001B188470020DCE600003C
:1010900028000240580002407000024088000240D0
:1010A000A00002407004024088040240A0040240F4
:1010B000B804024008540258406D70472DE9FC5FA7
:1010C0000446F74E0020DFF8D88300904FF4165204
:1010D000F44808F11808A56DDFF8C493DFF8C0A341
:1010E000016809F1300920680AF1480AB1FBF2F100
:1010F000B04201912F68D5F800C0DFF8ACB335D00D
:101100004146884232D0484530D050452ED05845CF
:101110002CD0E5491831884228D0E3493031884243
:1011200024D0E1494831884220D0E04988421DD08E
:10113000DE491831884219D0DC493031884215D057
:10114000DA494831884211D0DFF860E30EF1600ED1
:1011500070450BD0D54A7832904207D0D34B9033AC
:10116000984203D0D149A83188427DD194F85C20BF
:10117000082102F01F0201FA02F23A424AD0B042BC
:1011800032D0404530D048452ED050452CD058451F
:101190002AD0C54A1832904226D0C34A30329042F3
:1011A00022D0C14A483290421ED0C04A90421BD041
:1011B000BE4A1832904217D0BC4A3032904213D007
:1011C000BA4A483290420FD0B84A603290420BD0AF
:1011D000B64A7832904207D0B44A9032904203D057
:1011E000B24AA832904203D1026802F0040202E03F
:1011F000026802F008026AB1026822F0040202608A
:1012000094F85C0000F01F008140A960606D40F020
:101210000100606594F85C00012100F01F0081402E
:10122000394240D02068B04234D0404532D04845A1
:1012300030D050452ED058452CD09B4A1832904281
:1012400028D0994A3032904224D0974A483290426E
:1012500020D0964A90421DD0944A1832904219D01C
:10126000924A3032904200E0AFE113D08F4A4832C8
:1012700090420FD08D4A603290420BD08B4A783228
:10128000904207D0894A9032904203D0874AA832D0
:1012900090427DD1406910F0800F04D0A960606D4C
:1012A00040F00200606594F85C00042100F01F002B
:1012B000814039423ED02068B04232D0404530D0E3
:1012C00048452ED050452CD058452AD0764A183261
:1012D000904226D0744A3032904222D0724A48322C
:1012E00090421ED0714A90421BD0704A18329042F0
:1012F00017D06E4A3032904213D06C4A4832904236
:101300000FD06A4A603290420BD0684A78329042DD
:1013100007D0664A9032904203D0644AA832904285
:101320004ED1006810F0020F04D0A960606D40F04B
:101330000400606594F85C00102100F01F008140FB
:10134000394258D02068B04234D0404532D0484568
:1013500030D050452ED058452CD0534A18329042A8
:1013600028D0514A3032904224D04F4A48329042DD
:1013700020D04E4A90421DD04C4A1832904219D08B
:101380004A4A3032904215D0484A4832904200E0F2
:1013900014E00FD0454A603290420BD0434A783275
:1013A000904207D0414A9032904203D03F4AA8323F
:1013B000904207D1006800F0080006E0006872E77C
:1013C0000068B7E7006800F00400A0B1A9602068D9
:1013D0000168490304D50068000308D5A16C07E043
:1013E0000168C90503D4016821F008010160216C7E
:1013F00009B12046884794F85C00202100F01F00C6
:101400008140394279D02068B04232D0404530D056
:1014100048452ED050452CD058452AD0224A183263
:10142000904226D0204A3032904222D01E4A483282
:1014300090421ED01D4A90421BD01C4A1832904246
:1014400017D01A4A3032904213D0184A483290428C
:101450000FD0164A603290420BD0144A7832904234
:1014600007D0124A9032904203D0104AA8329042DC
:1014700003D1006800F0100002E0006800F00200F4
:10148000B0B3A96094F835000428206801680FD033
:1014900049037ED5006800032BD4616C2AE000006C
:1014A000100002400C0000247000024010040240B2
:1014B00021F0160101602068416921F0800141613D
:1014C000206C08B9A06C20B12068016821F00801E7
:1014D000016094F85C303F21012003F01F030022DB
:1014E0009940A96084F8350084F83420216D65E0C6
:1014F00003E0E16B09B120468847606D00287DD08C
:10150000606DC00759D02068042184F83510B042BE
:101510002BD0404529D0484527D0504525D05845A7
:1015200023D09D49884220D09B49183188421CD045
:1015300099493031884218D09849884215D0974946
:101540001831884211D09549303188420DD09349E5
:101550004831884209D091496031884205D08F498D
:101560007831884201D08D499031016821F0010124
:10157000016020680099019A491C0091914202D8AB
:101580000168C907F6D10068C00710D003200FE03A
:10159000FFE70168C905ACD403680121002223F0EC
:1015A0001003036084F8351084F83420A1E701208B
:1015B00084F83500002084F83400E16C00291DD047
:1015C00002B02046BDE8F05F0847754988421DD04B
:1015D00073491431884219D071492831884215D095
:1015E0006F493C31884211D06D49503188420DD04D
:1015F0006B496431884209D0694900E084E0783160
:10160000884203D066498C3188427DD194F85C8051
:101610000427016808F01F0807FA08F717EA0C0FFB
:10162000009746D04F0744D500980F04686003D553
:10163000C8033CD4A16CC1E7880638D42068B04206
:101640002DD055496039884229D0484527D050458A
:1016500025D0584523D05049884220D04E491831D2
:1016600088421CD04C493031884218D04B498842BE
:1016700015D04A491831884211D048493031884242
:101680000DD046494831884209D0704507D0904274
:1016900005D0984203D04149A831884203D101685E
:1016A00021F0080102E0016821F004010160216CD1
:1016B00084E7022707FA08F717EA0C0F00974ED0C5
:1016C0008F074CD500980F04686003D5C80344D435
:1016D000616C73E7880640D42068B0422FD02E4951
:1016E000603988422BD0484529D0504527D05845ED
:1016F00025D02949884222D02749183188421ED056
:1017000025493031884200E044E018D0234988421E
:1017100015D022491831884211D0204930318842F1
:101720000DD01E494831884209D0704507D09042FB
:1017300005D0984203D01949A831884203D10168E5
:1017400021F0140102E0016821F00A010160012189
:1017500084F83510002084F83400E16B2EE708226D
:1017600002FA08F212EA0C0F14D0090712D5016828
:1017700021F00E01016094F85C100120002201F0BC
:101780001F0100FA01F16960606584F8350084F892
:10179000342012E7BDE8FC9F88000240100402409C
:1017A000085402582DE9F05F044600F067FC002C55
:1017B00007467DD0E34E022120684FF00308DFF892
:1017C00088934FF00005DFF884A3B042DFF880B3C0
:1017D00034D0DC4A1832904230D048452ED05045A3
:1017E0002CD058452AD0DA4A1832904226D0D84A0E
:1017F0003032904222D0D64A483290421ED0D54A4A
:1018000090421BD0D34A1832904217D0D14A30327E
:10181000904213D0CF4A483290420FD0CD4A603226
:1018200090420BD0CB4A7832904207D0C94A9032CE
:10183000904203D0C74AA83290427DD184F8351037
:10184000B04284F834502ED0BE49183188422AD094
:10185000484528D0504526D0584524D0BC49183199
:10186000884220D0BA49303188421CD0B84948312A
:10187000884218D0B749884215D0B64918318842F5
:1018800011D0B449303188420DD0B2494831884234
:1018900009D0B0496031884205D0AE4978318842DC
:1018A00001D0AC499031016821F00101016008E0EC
:1018B00027E100BF00F0E2FBC01B052801D9202171
:1018C0001CE120680068C007F4D104F10800216819
:1018D000D4E9053C8E4685C809681043D4E9072839
:1018E0001F43636A38439C4F40EA0C001043394061
:1018F00040EA0800042B40EA010003D1D4E90B12AE
:1019000011430843954909686FF30F01B1F1005F76
:101910000FD36168A1F12902052A08D9163A032AD2
:1019200005D9083A012A02D94F39032901D840F4D0
:101930008010CEF8000000E023E02068676A40696C
:10194000042F20F0070047EA00070DD1D4E90A016F
:10195000074349B12046FEF771FF28B1402060657A
:10196000012184F83510CCE0206847612046FEF75D
:1019700083FE94F85C203F2102F01F0291408160B9
:1019800054E0774A90421BD0754B1433984217D0DD
:10199000734B2833984213D0714B3C3398420FD08D
:1019A0006F4B503398420BD06D4B6433984207D045
:1019B0006B4B7833984203D0694B8C3398427DD17E
:1019C00084F8351084F83450664B0168A26801EA47
:1019D000030E402A73D0802A72D00022D4E9037803
:1019E000D4E9053142EAD70242EAD8085C4AD4E990
:1019F000077C48EAD30848EAD10141EAD7015242BC
:101A000041EA1C11142341EA0E01016020681044D0
:101A1000B0FBF3F08000E0652046FEF72DFE94F861
:101A20005C20012102F01F02914041602068B04219
:101A300057D044491831884253D0484551D0504579
:101A40004FD058454DD042491831884249D040497D
:101A50003031884245D03E494831884241D03D49E5
:101A600088423ED03B49183188423AD0394930311A
:101A7000884236D037494831884232D035496031C2
:101A800088422ED03349783188422AD0314990316A
:101A9000884226D02F49A831884222D03049884236
:101AA0001FD02F49143188421BD02D49283188423C
:101AB00017D02B493C31884213D002E01DE017E0DB
:101AC00018E02749503188420BD0254964318842BB
:101AD00007D023497831884203D021498C3188428C
:101AE00029D12046FEF722FEA06880280CD00CE009
:101AF000102273E74FF4804270E74021616584F85B
:101B000035800120BDE8F09F6560216E2079086076
:101B1000D4E9190141606068401E072808D82046B2
:101B2000FEF752FEE06E0560D4E91C01416002E060
:101B3000E566256765670120656584F83500002046
:101B4000E0E7000010000240400002405800024060
:101B500070000240100402403F8010FE0010005C44
:101B6000085402580F00FEFF2DE9F84F04008C4680
:101B70004FF00000009014D094F83400012812D0E7
:101B800094F835500120002184F83400012D0CD048
:101B9000C00260650120009084F834100098BDE810
:101BA000F88F0120FBE70220F9E78C4D0226206820
:101BB00084F83560A8428A4D61658A4E8A4FDFF805
:101BC0002C82DFF82C92DFF82CA2DFF82CB226D082
:101BD000A84224D0B04222D0B84220D040451ED0E6
:101BE00048451CD050451AD0584518D083498842E2
:101BF00015D082491831884211D08049303188424D
:101C00000DD07E494831884209D07C4960318842F4
:101C100005D07A497831884201D0784990310168FD
:101C200021F00101016061462046FEF731FE6B495B
:101C3000206888422CD0A8422AD0B04228D0B8428E
:101C400026D0404524D0484522D0504520D0584584
:101C50001ED06A4A90421BD0684A1832904217D070
:101C6000664A3032904213D0644A483290420FD0D4
:101C7000624A603290420BD0604A7832904207D07C
:101C80005E4A9032904203D05C4AA83290420CD116
:101C9000026822F01E0242F016020260206C88B137
:101CA0002068026842F008020BE0026822F00E028F
:101CB00042F00A020260206C20B12068026842F003
:101CC00004020260206888424BD0A84249D0B0424A
:101CD00047D0B84245D0404543D0484541D0504513
:101CE0003FD058453DD0454A90423AD0434A1832F9
:101CF000904236D0414A3032904232D03F4A483248
:101D000090422ED03D4A603290422AD03B4A7832EF
:101D1000904226D0394A9032904222D0374AA83297
:101D200090421ED0364A90421BD0354A143290421F
:101D300017D0334A2832904213D0314A3C32904275
:101D40000FD02F4A503290420BD02D4A643290422D
:101D500007D02B4A7832904203D0294A8C329042E5
:101D60000DD1206E0268D20303D5026842F480725E
:101D70000260E06E18B1026842F48072026020686E
:101D8000884226D0A84224D0B04222D0B84220D0E7
:101D900040451ED048451CD050451AD0584518D053
:101DA0001649884215D015491831884211D0134977
:101DB000303188420DD011494831884209D00F494D
:101DC0006031884205D00D497831884201D00B49F5
:101DD0009031016841F001010160DFE6100002402E
:101DE00028000240400002405800024070000240BB
:101DF00088000240A0000240B800024010040240E7
:101E00000854025870B5044600F038F90546601CC5
:101E100002D004480078044400F030F9401BA0428E
:101E2000FAD370BD000000242DE9F84F03247D4D46
:101E300000234FF001094FF0B04B4FF00F0AE9E0DB
:101E400009FA03F73A4076D00E7906F00306012E20
:101E500001D0022E18D1D0F808C04FEA430ECE6848
:101E600004FA0EF82CEA080C06FA0EF646EA0C06FE
:101E70008660D0F804C00E792CEA070CC6F3001671
:101E80009E4046EA0C0646600E79F643B6070BD034
:101E9000C6684FEA43088F6804FA08FC26EA0C0675
:101EA00007FA08F73743C7600E7906F00306022EDB
:101EB00012D1DE080F694FEA437C00EB8606B64676
:101EC000366A4FEADC6C0AFA0CF807FA0CF726EAD5
:101ED00008063743CEF820700F7906684FEA4308AA
:101EE00007F0030704FA08FC07FA08F726EA0C06CD
:101EF000374307604E6816F4403F1CD04A4E37689F
:101F000047F00207376036689F0706F00206009622
:101F100023F0030606F1B046B6463F0FD6F8086434
:101F2000DFF808810AFA07FC404526EA0C0603D1CF
:101F30004FF0000C41E06CE0DFF8F4C0604502D1E6
:101F40004FF0010C39E0DFF8ECC0604502D14FF0F2
:101F5000020C32E0DFF8E0C0604502D14FF0030C24
:101F60002BE0DFF8D8C0604502D14FF0040C24E02C
:101F7000DFF8CCC0604502D14FF0050C1DE0DFF862
:101F8000C4C0604502D14FF0060C16E0DFF8B8C0BF
:101F9000604502D14FF0070C0FE0DFF8B0C060459C
:101FA00002D14FF0080C08E0DFF8A4C0604502D170
:101FB0004FF0090C01E04FF00A0C0CFA07FC4CEA58
:101FC000060CCEF808C44F68DBF80060FF0226EA72
:101FD000020600D516435F46CBF80060D1F804C076
:101FE000DBF804605FEA8C2C26EA020600D5164373
:101FF0007E606E684F6826EA0206BF0300D516436E
:102000006E602E684F6826EA0206FF0300D516436D
:102010002E605B1C0A6832FA03F67FF411AFBDE84C
:10202000F88F000080000058F44402580000025865
:102030000004025800080258000C02580010025810
:102040000014025800180258001C025800200258C0
:1020500000240258426921EA02030A4043EA02418D
:10206000816170470AB1816170470904FBE7000094
:1020700001480068000C70470010005C014880684F
:102080007047000000000024024881680278114473
:102090008160704700000024032010B500F0D4F8E0
:1020A00001F0AEF80F4A104914681368C4F3032214
:1020B00003F00F038A5CC95C02F01F0201F01F01EC
:1020C000D0400A4A20FA01F11160094908600F2046
:1020D00000F010F808B1012010BD00F079F80020E0
:1020E00010BD0000184402584A5200081000002495
:1020F0000C00002470B50D4D04462878A0B14FF4B3
:102100007A71B1FBF0F00A490968B1FBF0F001F017
:10211000D4FB48B9102C07D200222146501E00F0F3
:1021200073F800206C6070BD012070BD00000024B9
:102130000C000024154BF0B5083B427813491A6097
:102140000B680A1F23F001030B6043681360057BD3
:10215000C67A827A437B2D07847B45EA0665C77B76
:1021600090F809C0067A90F800E045EAC24040EADB
:10217000834040EA444040EA074040EA0C2040EAFD
:10218000460040EA0E000860F0BD0000A0ED00E04F
:10219000BFF35F8F044800210368034A23F48033B0
:1021A000036070321160704724ED00E0074A40F090
:1021B0000100064970321060086840F48030086001
:1021C000BFF34F8FBFF36F8F7047000024ED00E027
:1021D000054808B5016841F002010160006800F09F
:1021E0000200009008BD0000F4440258002809DBFA
:1021F000410900F01F028900012001F1E021904017
:10220000C1F80001704700000E4BF0B41B680D468A
:10221000C3F30223C3F10706042E00D90426191DB7
:10222000072901D2002300E0DB1E012404FA06F195
:102230009C40491E2940641E994014402143F0BC33
:1022400002F0A5BD0CED00E0064900F0070210B554
:102250004FF6FF040868044B204040EA0220184370
:10226000086010BD0CED00E00000FA05134970B5E0
:102270000A68D243520705D5096801F00701814277
:1022800013D118E00A6822F0070202430A60FFF740
:10229000F5FE0A4D4FF47A760446083D07E000BF8C
:1022A000FFF7ECFE001BB04201D9012070BD286889
:1022B000C0438004F4D4002070BD00000C480258D4
:1022C00010B500F057FF05490968054AC1F302112E
:1022D000515C01F01F01C84010BD000020440258AD
:1022E0004A520008494930B5484C0B1D0A6814345D
:1022F00009681D68246802F00303C5F30012C1F3E6
:102300000531C4F3CC04002914FB02F200EE102ABC
:10231000F8EE400A75D03F4A9FED3D1AB7EE000A2D
:102320006BB1DFED3D1A012B01D0022B64D002EE20
:10233000101A1168F8EE422A81EEA22A21E0334CED
:10234000283C23689B0612D5344B246801EE901A72
:102350001168C4F3C104F8EE612AE34001EE903A3B
:10236000C1F30801F8EE611A81EEA22A0BE001EE3A
:10237000901ADFED2B2A00BFF8EE611A116882EE89
:10238000A12AC1F3080101EE901A1168F8EE611A52
:1023900040EE811A71EE800A62EE200AC1F34621F6
:1023A00001EE101AB8EE411A31EE001AC0EE811A91
:1023B000BCEEE11A80ED001A1168C1F3064101EE8E
:1023C000101AB8EE411A31EE001AC0EE811ABCEEB6
:1023D000E11A80ED011A1168C1F3066101EE101ACD
:1023E000B8EE411A31EE000A80EE801ABCEEC10A46
:1023F00080ED020A30BD04E001EE901ADFED092AFB
:10240000BAE70021016041608160F3E72844025887
:1024100000000039384402580024744A0090D00368
:102420000024744C0024F44A494930B5484C0B1D33
:102430000A681C3409681D68246802F00303C5F3A8
:102440000022C1F30551C4F3CC04002914FB02F2AD
:1024500000EE102AF8EE400A75D03F4A9FED3D1A73
:10246000B7EE000A6BB1DFED3D1A012B01D0022B54
:1024700064D002EE101A1168F8EE422A81EEA22A08
:1024800021E0334C283C23689B0612D5344B24684A
:1024900001EE901A1168C4F3C104F8EE612AE3401A
:1024A00001EE903AC1F30801F8EE611A81EEA22A1A
:1024B0000BE001EE901ADFED2B2A00BFF8EE611A57
:1024C000116882EEA12AC1F3080101EE901A116889
:1024D000F8EE611A40EE811A71EE800A62EE200A6F
:1024E000C1F3462101EE101AB8EE411A31EE001A7E
:1024F000C0EE811ABCEEE11A80ED001A1168C1F33A
:10250000064101EE101AB8EE411A31EE001AC0EE83
:10251000811ABCEEE11A80ED011A1168C1F306615F
:1025200001EE101AB8EE411A31EE000A80EE801A60
:10253000BCEEC10A80ED020A30BD04E001EE901A43
:10254000DFED092ABAE70021016041608160F3E70D
:102550002844025800000039404402580024744ABC
:102560000090D0030024744C0024F44A2DE9FE4F5F
:102570000546DFF8E48350F8081B0024F64FC943F2
:10258000019005F12800264608F124080090080172
:102590001DD4A86E50B1B0F5801F0CD0B0F5001F4F
:1025A0000ED0B0F5401F1ED001240FE0386840F473
:1025B0000030386017E00198022101F07BFD03E054
:1025C0000098022101F006FE04000CD0264628885F
:1025D000C043C00523D4A86D05281ED2DFE800F053
:1025E0000C11161B1B00AA6ED8F8001021F4401124
:1025F0001143C8F80010EAE7386840F4003038604A
:1026000009E00198002101F055FD03E00098002148
:1026100001F0E0FD044674B100E00124264628885C
:10262000C043800528D4E86D80281ED00CDC90B112
:1026300040280ED114E0AA6DD8F8001021F007014F
:102640001143C8F80010EAE7C02813D0B0F5807F26
:1026500010D001240FE0386840F40030386009E001
:102660000198002101F026FD03E00098002101F00F
:10267000B1FD04469CB126462888DFF8DC92C043B1
:1026800009F12C0940052CD4D5F8A800B0F5800F2D
:1026900020D00DDCA0B1B0F5001F0FD115E0EA6D20
:1026A000D8F8001021F4E0711143C8F80010E3E7F6
:1026B000B0F5C00F13D0B0F5000F10D001240FE01B
:1026C000386840F40030386009E00198002101F0DA
:1026D000F1FC03E00098002101F07CFD04467CB190
:1026E00026462888C04300052DD4D5F8AC00B0F1AB
:1026F000007F21D00EDCA8B1B0F1807F10D116E0B0
:10270000D5F8A820D9F8001021F460011143C9F8C8
:102710000010E6E7B0F1407F13D0B0F1806F10D029
:1027200001240FE0386840F40030386009E0019877
:10273000002101F0BFFC03E00098002101F04AFDF8
:10274000044674B126462868C04380011FD4E86C53
:10275000D8B110280FD0202812D0302815D001244D
:1027600014E0D5F8AC20D9F8001021F0E061114355
:10277000C9F80010E7E7386840F40030386004E03A
:102780000198022101F096FC044674B1264628887F
:10279000C043C0042BD4286EB0F5005F20D00DDC00
:1027A000A0B1B0F5805F0FD115E06B48EA6C203026
:1027B000016821F0300111430160E8E7B0F5405FA6
:1027C00013D0B0F5804F10D001240FE0386840F4EA
:1027D0000030386009E00198002101F06BFC03E053
:1027E0000098002101F0F6FC04468CB126462888AA
:1027F000C043800429D4686EB0F5403F23D010DC7C
:1028000008B3B0F5803F14D0B0F5003F0FD115E00C
:102810002A6ED8F8001021F4E0411143C8F80010E6
:10282000E5E7B0F5802F0ED0B0F5A02F0BD0012436
:102830000AE00198012101F03DFC03E0009801212C
:1028400001F0C8FC044694B126462888C0434004E1
:102850002AD4D5F8B000B0F1405F23D010DC08B323
:10286000B0F1805F14D0B0F1005F0FD115E06A6E57
:10287000D8F8001021F4E0211143C8F80010E4E773
:10288000B0F1804F0ED0B0F1A04F0BD001240AE080
:102890000198012101F00EFC03E00098012101F0F4
:1028A00099FC044674B126462888C04300041FD40E
:1028B000286FD8B1B0F1805F0ED0B0F1005F10D0BA
:1028C000012414E0D5F8B020D9F8001021F0E0413F
:1028D0001143C9F80010E7E7386840F40030386069
:1028E00004E00198012101F0E5FB044674B126469D
:1028F0002868C043C0011ED4A86CD0B101280ED0F6
:10290000022811D0032814D0012413E02A6FD8F82C
:10291000001021F040511143C8F80010E8E7386872
:1029200040F40030386004E00198022101F0C2FB5D
:102930000446ACB126462868DFF81CB0C043ABF1B2
:102940001C0B400252D40548016841F480710160BB
:10295000FFF794FB824611E02C44025800480258CD
:10296000FA48AA6C016821F0030111430160E2E713
:10297000FFF784FBA0EB0A00642835D8F448006810
:10298000C005F5D58CBBDFF8C4A3B5F8B4100AF1C7
:10299000240ADAF8000001F4407100F44070884223
:1029A00011D0DAF80010DAF8002021F4407142F476
:1029B0008032CAF80020DAF8002022F48032CAF807
:1029C0000020CAF80010D5F8B400B0F5807F1AD105
:1029D000FFF754FB029012E0FFF750FB0299411AF7
:1029E00041F2883081420AD9032426462878DFF84C
:1029F0005CA3C0430AF1080AC00721D03CE0DAF822
:102A000000008007E8D5D5F8B410C1F301200328F1
:102A100058460DD0016821F47C510160B5F8B4200E
:102A2000DAF80010C2F30B021143CAF80010DDE718
:102A3000C84A036802EA111223F47C511143ECE7FF
:102A4000E86F182816D005DCA0B1082808D0102897
:102A500004D10AE020280DD028280BD001240AE058
:102A60000198012101F026FB03E00098012101F00B
:102A7000B1FB044664B126462878C04380071ED4C3
:102A8000A86F062819D2DFE800F0160C11161616EA
:102A9000EA6FDAF8001021F038011143CAF800108B
:102AA000EAE70198012101F005FB03E0009801210C
:102AB00001F090FB04467CB100E001242646287812
:102AC000C04340071FD4D5F89400062819D2DFE888
:102AD00000F0160C11161616AA6FDAF8001021F085
:102AE00007011143CAF80010E9E70198012101F03C
:102AF000E1FA03E00098012101F06CFB0446A4B167
:102B000000E0012426462878C04380062BD4D5F85F
:102B10009000B0F1405F24D011DC10B3B0F1805FC1
:102B200015D0B0F1005F10D116E0D5F89420D9F897
:102B3000001021F007011143C9F80010E3E7B0F1DC
:102B4000804F0ED0B0F1A04F0BD001240AE00198C5
:102B5000002101F0AFFA03E00098022101F03AFBF6
:102B6000044694B126462878C04340062BD4D5F8B5
:102B70009C00B0F5406F24D011DC10B3B0F5806F2D
:102B800015D0B0F5006F10D116E0D5F89020DAF826
:102B9000001021F0E0411143CAF80010E3E7B0F55E
:102BA000805F0ED0B0F5A05F0BD001240AE0019841
:102BB000002101F07FFA03E00098022101F00AFBF6
:102BC000044694B126462878C04300062BD4D5F895
:102BD000A000B0F5C04F24D011DC10B3B0F5005FF9
:102BE00015D0B0F5804F10D116E0D5F89C20D9F85B
:102BF000001021F4E0511143C9F80010E3E7B0F5EB
:102C0000004F0ED0B0F5204F0BD001240AE0019800
:102C1000002101F04FFA03E00098022101F0DAFAF6
:102C2000044654B126462878C04300071ED4D5F880
:102C30008400B0F5805F0AD00FE0D5F8A020D9F865
:102C4000001021F460411143C9F80010EBE700982F
:102C5000022101F0BFFA00B10126D5F88420DAF88C
:102C6000001021F440511143CAF800102878C043E5
:102C7000C00613D4D5F89800B0F5807F05D1009830
:102C8000022101F0A7FA00B10126D5F89820D9F861
:102C9000001021F440711143C9F800102868C043A6
:102CA000000316D4D5F8A40038B1B0F5803F09D0A0
:102CB000B0F5003F0BD001240AE00198002101F09B
:102CC000F9F903E00098022101F084FA04468CB17E
:102CD00026462868C043400322D4D5F88800B0F5C2
:102CE000801F11D0B0F5001F13D0B0F5401F15D0D4
:102CF000012414E0D5F8A420D9F8001021F44031C3
:102D00001143C9F80010E4E7386840F40030386037
:102D100004E00098012101F05DFA04465CB126460A
:102D20002868C043C00323D4286DA8B1B0F5803F04
:102D300017D001241BE0D5F88820DAF8001021F420
:102D400040111143CAF80010EAE700004C44025851
:102D500000480258CFFFFF00386840F40030386068
:102D600004E00198022101F0A5F90446E4B12646E9
:102D70002868C043800005D40098022101F02AFA97
:102D800000B101262868C04380031BD4D5F8800019
:102D9000B0B1B0F5807F0FD0B0F5007F10D0B0F5A6
:102DA000407F0DD001240CE05A482A6D016821F4BF
:102DB000803111430160DBE7386840F4003038604F
:102DC000ECB326462868C043C00207D46A6FD8F81F
:102DD000001021F000411143C8F800102868C043DA
:102DE000C00008D4D5F8B820DBF8001021F48041E9
:102DF0001143CBF800102868C043800207D4EA6E64
:102E0000D8F8001021F080711143C8F8001028682C
:102E1000C04340000CD4DBF8001021F40041CBF893
:102E20000010DBF80010D5F8BC201143CBF80010DF
:102E30002868C04308D437486A6D016800E018E08C
:102E400021F04051114301602868C043000208D4BA
:102E5000D5F88C20DAF8001021F440011143CAF8AB
:102E6000001028790024C04300F0010020430AD05C
:102E70000FE0D5F88020DAF8001021F440711143FA
:102E8000CAF800109EE70198002101F013F900B183
:102E900006462879C04300F00200204305D101987E
:102EA000012101F007F900B106462879C04300F07E
:102EB0000400204305D10198022101F0FBF800B184
:102EC00006462879C04300F00800204305D1009849
:102ED000002101F07FF900B106462879C04300F0D7
:102EE0001000204305D10098012101F073F900B1D1
:102EF00006462879C04300F02000044304D100981E
:102F0000022101F067F900B916B10120BDE8FE8F7A
:102F10000020FBE74C4402582DE9F05F04000F4607
:102F20007ED0DFF83882D8F8000000F00F00B842F9
:102F30000CD2D8F8001021F00F013943C8F8001066
:102F4000D8F8000000F00F00B84269D12078844D15
:102F500040070AD52069296801F07001884204D928
:102F6000296821F070010143296020787C4E361DCC
:102F700000070AD56069316801F07001884204D900
:102F8000316821F07001014331602078C0060AD514
:102F9000A069316801F4E061884204D9316821F404
:102FA000E061014331602078DFF8B4B180060BF1B5
:102FB000080B0CD5E1695846DBF8002002F07002DE
:102FC000914204D9026822F070020A43026020781C
:102FD00080070AD5E068296801F00F01884204D90A
:102FE000296821F00F01014329602078C0073ED0F5
:102FF0005B49A2682868183920F470601043286083
:103000006068022818D0032819D00968012819D04F
:10301000490700294ADADFF848A1AAF1080A00E0C6
:1030200044E0DAF8002022F007020243CAF8002048
:10303000FFF724F8814612E009688903E9E7096887
:103040008901E6E7C905E4E7FFF718F8A0EB0901F5
:1030500041F28830814202D90320BDE8F09F6168C7
:10306000DAF8000000F03800B0EBC10FECD12078A6
:1030700080070AD5E068296801F00F01884204D270
:10308000296821F00F0101432960D8F8001040465B
:1030900001F00F01B9420BD9016821F00F0139434A
:1030A0000160006800F00F00B84201D00120D4E7B1
:1030B000207840070AD52069296801F0700188420C
:1030C00004D2296821F070010143296020780007AB
:1030D0000AD56069316801F07001884204D2316814
:1030E00021F07001014331602078C0060AD5A06943
:1030F000316801F4E061884204D2316821F4E06172
:1031000001433160207880060CD5E1695846DBF830
:10311000002002F07002914204D2026822F0700294
:103120000A43026000F06CF80E492A682B68C2F36B
:10313000032203F00F038A5CC95C02F01F0201F056
:103140001F01D040084A20FA01F1116007490860C8
:1031500007480068BDE8F05FFEF7CCBF00200052D2
:10316000184402584A520008100000240C000024A1
:103170000400002430B500F043F80B4A0B490C4B17
:1031800015681468C5F3032204F00F048A5C095D16
:1031900002F01F0201F01F01D040064A20FA01F19F
:1031A00019601060084630BD184402584A520008A1
:1031B000100000240C00002400B5FFF7DBFF0549D8
:1031C0000968054AC1F30211515C01F01F01C840B2
:1031D00000BD00001C4402584A52000800B5FFF729
:1031E000C9FF05490968054AC1F30221515C01F094
:1031F0001F01C84000BD00001C4402584A5200088C
:10320000454970B545480968434B103B11F03802F9
:1032100008D00111082A03D0102A0BD0182A0BD08D
:10322000084670BD19688906FBD51968C1F3C1014C
:10323000C84070BD3A4870BD3749374D18310C1D34
:1032400024350A68096826682D6802F0030406F030
:103250000102C1F30511C5F3CC0515FB02F200EE26
:10326000102AB8EE400AE9B32F4ADFED2E0AB7EE76
:10327000001A6CB1DFED2D1A012C01D0022C43D0C5
:1032800002EE101A1068F8EE422A81EEA22A1EE021
:103290001C68A40611D51B6801EE901A1168C3F3CF
:1032A000C103F8EE612AD84001EE900AC1F308008C
:1032B000F8EE611A81EEA22A0BE001EE901ADFED22
:1032C0001C2A00BFF8EE611A106882EEA12AC0F332
:1032D000080001EE900AF8EE611A40EE201A31EE75
:1032E000810A00E015E022EE000A1068C0F34620D3
:1032F000401C00EE900AF8EE600A80EE201ABCEE48
:10330000C10A10EE100A70BD01EE901ADFED092A15
:10331000D8E7002070BD0000104402580090D00390
:1033200000127A0000000039304402580024744A28
:103330000024744C0024F44A2DE9F05F04007DD091
:10334000FF4F2078FE4D1837DFF8F493103DC0078B
:1033500048D0D9F80000396800F03800102815D09E
:10336000182803D101F0030002280FD06068B0F5DF
:10337000803F12D010B1B0F5A02F18D0286820F4EB
:1033800080302860286820F4802009E028688003C5
:1033900028D560680028D2D024E0286840F4803026
:1033A0002860606888B1FEF769FE064609E0286873
:1033B00040F480202860F0E7FEF760FE801B642860
:1033C0006FD828688003F7D50CE0FEF757FE064655
:1033D00005E000BFFEF752FE801B6428F0D8286885
:1033E0008003F7D4207841F20308D54E0C3E8007C5
:1033F00069D5D9F80000396810F038000ED01828C7
:1034000001D188070AD0E06890B3296821F019013A
:1034100001432960FEF732FE824631E0286840070A
:1034200002D5E06800288AD0E168286820F01900F9
:1034300008432860FEF722FE824607E0DFE000BF77
:10344000FEF71CFEA0EB0A000228B9D82868400746
:10345000F6D500BFFEF70CFE40451BD8206940287A
:1034600012D0316821F47C3141EA003030602AE02A
:1034700018E000BFFEF702FEA0EB0A0002289FD86A
:1034800028684007F6D5E5E7306820F47C3040F442
:103490000030EBE7207C316821F0FE4141EA00601A
:1034A000E4E70DE1286820F001002860FEF7E6FD62
:1034B000824605E0FEF7E2FDA0EB0A0002288DD867
:1034C00028684007F6D42078C0065DD5D9F80000FA
:1034D000DFF86CB2396800F03800ABF1040B082853
:1034E00010D0182803D101F0030001280AD0E069A8
:1034F0000028286838D040F080002860FEF7BEFD24
:10350000824623E02868C00523D5E069802876D16B
:103510001FE0206A202821D0316821F0F84141EADB
:103520008060306030E000BF94F82010DBF80020AD
:1035300022F07C5242EA0161CBF8001024E000BF87
:10354000FEF79CFDA0EB0A00022898D82868C00569
:10355000F6D5FEF78DFD4045E6D8DAE7306820F075
:10356000F84040F08040DCE720F080002860FEF763
:1035700085FD064605E000BFFEF780FD801B0228A2
:103580009DD82868C005F7D42078000729D56C4855
:103590006169643000298046016811D041F0010161
:1035A0000160FEF76BFD064605E000BFFEF766FD15
:1035B000801B0228C9D8D8F800008007F6D510E093
:1035C00021F001010160FEF759FD064605E000BF4C
:1035D000FEF754FD801B022872D8D8F8000080073F
:1035E000F6D42078800623D5A0690028286810D05A
:1035F00040F480502860FEF741FD064605E036E1C4
:10360000FEF73CFD801B02285AD828688004F7D5B5
:103610000EE020F480502860FEF730FD064604E0FE
:10362000FEF72CFD801B02284AD828688004F7D4B6
:10363000207840074FD5DFF80C81D8F8001041F40E
:103640008071C8F80010FEF719FD064605E000BFBE
:10365000FEF714FD801B642832D8D8F80000C0059E
:10366000F6D5374EA068603601280AD008B1052883
:1036700013D0306820F001003060306820F0040082
:1036800002E0306840F001003060A06841F2883A02
:1036900090B1FEF7F3FC80460AE0306840F0040089
:1036A0003060EEE7FEF7EAFCA0EB0801514507D8D1
:1036B00030688007F6D50EE0FEF7E0FC804607E0B4
:1036C00084E000BFFEF7DAFCA0EB080151457DD88D
:1036D00030688007F6D4606AB0B3DFF86480D9F848
:1036E000001008F120084FF6F87B08F10409C1F337
:1036F000C2010329A8F1040A69D00228286820F031
:103700008070286003D0FEF7B9FC044684E0FEF721
:10371000B5FC064605E000BFFEF7B0FC801B0228A2
:1037200077D828688001F7D4E26A40F2F33138682C
:1037300054F8283F884340EA02101843386004E0F8
:103740001044025800480258B5E0217B43462289C4
:103750004FF4FE0C208A4FF0FE474902267D521E90
:10376000401EA1F50071C2F308088AB2761E0CEA69
:10377000004042EA08020243504607EA06610A4353
:103780001A60DAF8002022F00102CAF80020D9F805
:103790000020266A22EA0B0242EAC602C9F800208B
:1037A000DAF80010A26921F00C011143CAF80010E8
:1037B0000168E26921F0020111430160016841F4EE
:1037C00080310160016841F4003101E021E027E02F
:1037D0000160016841F480210160016841F001014C
:1037E0000160286840F080702860FEF747FC0446BE
:1037F00005E000BFFEF742FC001B022809D828683C
:103800008001F7D557E000BFFEF738FC001B022807
:1038100002D90320BDE8F09F28688001F4D44AE073
:1038200039680128D8F8000021D0A26A01F003030A
:1038300093421CD1E26AC1F305118A4217D1216B70
:10384000C0F30802491E8A4211D1616BC0F34622BF
:10385000491E91420BD1A16BC0F30642491E914211
:1038600005D1E16BC0F30660491E814201D0012001
:10387000D0E7A16C4E46D9F80000C0F3CC008142DD
:1038800019D0DAF80000554620F00100CAF800000F
:10389000FEF7F4FB4FEA0007FEF7F0FBB842FBD05F
:1038A000A26C306820EA0B0040EAC2003060286851
:1038B00040F0010028600020ACE7401EB0F1807F9E
:1038C00010B501D3012010BD4FF0E02460610F213D
:1038D000601701F05CFA0020A0610721216110BD92
:1038E00030B590F88410012918D0012280F8842086
:1038F0002421C0F888100022202401680B680D687C
:1039000023F0005325F001050D60426601680B604D
:10391000C0F8884080F88420104630BD022030BDB9
:103920007047704770B5044690F8840001281DD098
:10393000012284F884202420C4F8880020680568C7
:10394000026822F0010202602068826822F0606250
:103950000A438260204600F0A1FD22682021002059
:103960001560C4F8881084F8840070BD022070BD12
:1039700070B5044690F8840001281DD0012284F817
:1039800084202420C4F8880020680568026822F09A
:10399000010202602068826822F060420A4382606D
:1039A000204600F07BFD2268202100201560C4F82D
:1039B000881084F8840070BD022070BD7047704785
:1039C00070B50446216851E8000F20F4907041E87A
:1039D0000002002AF6D1244A2068083050E8001F6F
:1039E000114040E80013002BF6D1E06E012808D109
:1039F000216851E8000F20F0100041E80002002A81
:103A0000F6D1206800258068400618D52068083067
:103A100050E8001F21F0400140E80012002AF5D1D3
:103A2000D4F8800058B10565D4F88000FDF752F84D
:103A300028B1D4F88000FDF73FFB20280FD00F20DD
:103A4000A4F85E502268202110622068826942F04A
:103A500008028261C4F88C10E566002070BD102059
:103A6000C4F89000032070BDFEFFFFEF7047000018
:103A70002DE9F04107680025044640F60F030226B1
:103A8000F8693968BA6818420AD183067ED501F010
:103A9000200302F0805C53EA0C0377D0616F7EE173
:103AA000D44BDFF854C3134001EA0C0C53EA0C0C5E
:103AB0006CD05FEAC07C0CD05FEAC15C09D54FF0E6
:103AC000010CC7F820C0D4F8907047F00107C4F883
:103AD0009070870709D5D70707D027683E62D4F8CA
:103AE000906046F00406C4F8906046070AD5D607F1
:103AF00008D0276804263E62D4F8906046F002069B
:103B0000C4F8906006070CD501F020061E4308D0CB
:103B1000266808233362D4F8903043F00803C4F8D1
:103B2000903003050BD54B0109D526684FF400638F
:103B30003362D4F8903043F02003C4F89030D4F8C6
:103B40009030002B3DD0800609D501F0200002F016
:103B50008051084303D0616F09B12046884721682E
:103B6000D4F890008968490602D410F0280F2AD0B2
:103B7000204600F0EFFD2068806840061ED52068D2
:103B8000083050E8001F21F0400100E021E040E84B
:103B90000012002AF3D1D4F8800078B1974901656A
:103BA000D4F88000FDF746F900280AD0D4F8800048
:103BB000016D00E02046BDE8F04108472046FFF7D0
:103BC00055FFBDE8F0812046FFF750FFC4F8905044
:103BD000F7E7D4F86CC02023BCF1010F7ED15FEA77
:103BE000C06C7BD55FEAC16C78D510203862206844
:103BF0008068400673D5D4F88020814910688842D7
:103C000034D07F491831884230D07D4930318842E4
:103C10002CD07B494831884228D07949603188428C
:103C200024D077497831884220D075499031884234
:103C30001CD07349A831884218D07249884215D0E7
:103C400070491831884211D06E49303188420DD008
:103C50006C494831884209D06A496031884205D0B0
:103C600068497831884201D06649903140684FF404
:103C700080770004000C40D0B4F85C1081423CD93D
:103C8000A4F85E00D069B8422FD0216851E8000F37
:103C900020F4807041E80002002AF6D12068083044
:103CA00050E8001F21F0010140E80012002AF5D180
:103CB0002068083050E8001F21F0400140E8001261
:103CC000002AF5D1C4F88C30E566206850E8001F62
:103CD00021F0100140E80012002A01E04AE019E05A
:103CE000F3D1D4F88000FCF7F5FE2667B4F85C0049
:103CF000B4F85E10401A81B208E0B4F85C1081425A
:103D00007FF466AFD069B842FAD126672046FFF744
:103D100007FE56E7B4F85C00B4F85E10B4F85E2015
:103D2000401A81B2002AF4D00029F2D0226852E869
:103D3000000F20F4907042E80007002FF6D1324FB8
:103D4000206800F1080050E8002F02EA070240E86E
:103D5000002CBCF1000FF3D1C4F88C30E566656728
:103D6000226852E8000F20F0100042E80003002B08
:103D7000F6D1CAE7C60209D5560207D54FF480101E
:103D800038622046BDE8F041FFF719BE06060AD5A5
:103D900001F0800602F40002164304D0A16F00294E
:103DA0007FF408AF0DE7420611D54A060FD520462D
:103DB000016851E8002F22F0400241E80024002C65
:103DC000F6D1C0F88830856700F0E2F8F9E6020223
:103DD00006D54A0004D52046BDE8F041FFF7EEBD08
:103DE000C00196D5002994DA2046BDE8F041FFF7DE
:103DF00098BD000001000010200100045346000897
:103E00001000024010040240FEFFFFEF10B5040056
:103E100003D0D4F8880010B107E0012010BD0020C5
:103E200084F88400204600F027F82420C4F8880095
:103E30002068016821F001010160A06A10B12046EC
:103E400000F04EFB204600F0C7FC0128E6D02068B9
:103E5000416821F4904141602068816821F02A0185
:103E600081602068016841F0010101602046BDE8E1
:103E7000104000F099BB000070B5B6B006461421A2
:103E800030A8FCF739FBC0216846FCF735FB284910
:103E9000306888424AD100201F9001210546CDE9B3
:103EA00000106846FEF762FB08B1FCF702FE2148ED
:103EB000016841F020010160006800F020003590A9
:103EC0001C481038016841F004010160006830AB03
:103ED000022100F004003590C020072283E823006F
:103EE000154830A9CDE93352FDF79EFF134C472109
:103EF000134802152060C4E90115D001C4E903523A
:103F00006561A561C4E9075020466562FDF74AFC7A
:103F100008B1FCF7CEFD0022C6F8804047201146CC
:103F2000A663FEF771F94720FEF760F936B070BD61
:103F300000140140F044025800080258D401002443
:103F40001000024030B4D0F88C30202B02D0022078
:103F500030BC7047A9B1A2B10B4D00240368C46600
:103F6000AB420BD05B681B0208D5046854E8003FE5
:103F700043F0806344E80035002DF6D130BC00F0FA
:103F800001BE0120E4E70000000C005870477047B4
:103F90007047FEE72DE9F04186B014216846FCF732
:103FA000ABFA2648016841F080010160016801F028
:103FB00080010591016841F002010160016801F092
:103FC00002010591016841F010010160016801F0F2
:103FD00010010591016841F004010160016801F0E0
:103FE00004010591016841F00101016000680122AE
:103FF000134F022100F0010005903846FEF732F819
:10400000DFF840804FF40076002231464046FEF74C
:1040100029F801256946022438460294CDE9004575
:104020000394FDF701FF00966946CDE9015440462F
:104030000394FDF7F9FE06B0BDE8F081E0440258B4
:1040400000040258001002581748002110B5154C02
:104050000C224FF461230460C0E90131C160C0E962
:1040600004128161C161016241628162FFF7CEFE8B
:1040700008B172B6FEE70C480021FFF779FC08B1E1
:1040800072B6FEE708480021FFF74CFC08B172B693
:10409000FEE70548FFF724FC002801D072B6FEE7D2
:1040A00010BD00000014014040000024FEE7FEE7C0
:1040B000704700002DE9F047454D044689464FF012
:1040C000000A2868C04380070AD0414E283E306865
:1040D00020F080603060FDF7D1FF0746B04608E071
:1040E0000120BDE8F08700BFFDF7C8FFC01B022814
:1040F00067D8D8F800000001F6D4206829684FF48A
:10410000FE0721F47C313E0241EA00302860207A2B
:10411000A389B4F804C040022D4D2D495B1E227CBA
:10412000ACF1010C1035091DA0F5007080B2521ED3
:10413000CCF3080C07EA034340EA0C00184306EAF4
:104140000262104328600868626920F0C0001043D2
:1041500008600A68A06922F0200202430A60281D54
:104160000A6822F010020A6002684FF6F873E469E8
:104170009A4342EAC40202600868B9F1000F40F0B5
:1041800010020A6011D00868B9F1010F11D040F493
:1041900000100860D8F80000444640F08060C8F87D
:1041A0000000FDF76BFF05460DE0086840F40020B5
:1041B000EFE740F48010ECE7FDF760FF401B0228BA
:1041C00001D903208DE720680001F5D5504688E726
:1041D000284402582DE9F047454D044689464FF0E2
:1041E000000A2868C04380070AD0414E283E306844
:1041F00020F080503060FDF741FF0746B04608E0F0
:104200000120BDE8F08700BFFDF738FFC01B022882
:1042100067D8D8F800008000F6D4208829684FF4C9
:10422000FE0721F07C713E0241EA00502860207AAE
:10423000A389B4F804C040022D4D2D495B1E227C99
:10424000ACF1010C1835091DA0F5007080B2521EAA
:10425000CCF3080C07EA034340EA0C00184306EAD3
:104260000262104328600868626920F440601043CD
:1042700008600A68A06922F4007202430A60281DDF
:104280000A6822F480720A6002684FF6F873E469E3
:104290009A4342EAC40202600868B9F1000F40F490
:1042A00080720A6011D00868B9F1010F11D040F096
:1042B00080700860D8F80000444640F08050C8F88C
:1042C0000000FDF7DBFE05460DE0086840F48000C5
:1042D000EFE740F40000ECE7FDF7D0FE401B0228BA
:1042E00001D903208DE720688000F5D5504688E786
:1042F000284402587047FDF7C7BE000030B59DB096
:104300004C216846FCF7F8F8202113A8FCF7F4F8D4
:104310000220FDF7ABFF2149002421480A6822F062
:1043200001020A600968016841F4404101600168C6
:1043300001F440411B9101688904FCD502200090E2
:10434000402504950121039104220B923223CDE9EB
:104350000904CDE90C300FAB0E900C2183E813005B
:1043600068461294FEF7E8FF08B172B6FEE708222D
:104370001A95CDE91625D30113AA3F200321CDE9D3
:10438000185382E81300022113A8FEF7C5FD002888
:1043900001D072B6FEE71DB030BD00002C040058FD
:1043A000184802583348F0B5334A016841F47001A7
:1043B0000160106800F00F00072804D2106820F098
:1043C0000F00C01D10602D4900202C4C10340B68CC
:1043D0002B4D43F001030B6020600B682B400B60FA
:1043E000136803F00F03072B04D9136823F00F039E
:1043F000DB1D1360214C234A1834234B261D371D27
:1044000020601E4C214D28343060261D3860371D39
:1044100023603B1D35601C1D3A60251D2E1D186054
:10442000331D22602860326018600A68134B184CF4
:1044300022F4802260330A60186020686FF30F0056
:10444000B0F1005F03D213490120C1F808010B4805
:10445000D4300168C9040BD4026843F2D2010E4B78
:1044600042F4805202601960016821F480510160B9
:10447000F0BD000088ED00E000200052004402582A
:104480007FEDF6EA80020101000202020000FF0156
:104490000010005C008000510040005230B5416EB9
:1044A000B9B101680D4B03F108048A688968C2F349
:1044B0004262490F5D5C615C2D01B5FBF1F1A0F832
:1044C0006A10995CA25C0901B1FBF2F1A0F86810D6
:1044D00030BD0121A0F86A10F8E700003A52000848
:1044E00090F82810090706D50168836B4A6822F402
:1044F00000421A434A6090F82810C90706D00168A4
:10450000C36A4A6822F400321A434A6090F82810BD
:10451000890706D50168036B4A6822F480321A4382
:104520004A6090F82810490706D50168436B4A682D
:1045300022F480221A434A6090F82810C90606D552
:104540000168C36B8A6822F480521A438A6090F82B
:104550002810890606D50168036C8A6822F4005287
:104560001A438A6090F82810490611D50168436CF7
:104570004A6822F480121A434A60416CB1F5801FE8
:1045800006D10168836C4A6822F4C0021A434A606B
:1045900090F82810090606D50168C26C486820F416
:1045A00000201043486070472DE9F8430025044679
:1045B000C0F89050FDF762FD8046206820266FF01D
:1045C0007E470068000713D5002243463104204689
:1045D000009700F02BFB58B1216851E8000F20F044
:1045E000800041E80002002AF6D1C4F8886021E08A
:1045F00020680068400722D5002243464FF480011E
:104600002046009700F012FBC8B1206850E8001F58
:1046100021F4907140E80012002AF6D12068083099
:1046200050E8001F21F0010140E80012002AF5D1F6
:10463000C4F88C60032084F88450BDE8F883C4F883
:104640008860C4F88C60E5662567002084F8845093
:10465000F3E710B5806B0021A0F85E10FFF706FAB3
:1046600010BD70B5846B00252168D4F88800D4F89B
:104670008C608968090606D5212804D1A4F8565013
:10468000204600F091F820688068400606D5222E6A
:1046900004D1A4F85E50204600F05CF8D4F89000F5
:1046A00040F01000C4F890002046FFF7DFF970BD1D
:1046B00010B5C1690022806BB1F5807F2DD0A0F8C4
:1046C0005E20036853E8001F21F4807143E8001462
:1046D000002CF6D10168083151E8003F23F00103B6
:1046E00041E80034002CF5D10168083151E8003F61
:1046F00023F0400341E80034002CF5D12021C0F81C
:104700008C10C16E012908D1016851E8003F23F0E7
:10471000100341E80034002CF6D10267C16E012974
:1047200002D0FFF733FC10BDB0F85C10FFF7F8F8CB
:1047300010BD10B5806B01210167C16E012902D047
:10474000FFF725FC10BDB0F85C104908FFF7E8F84A
:1047500010BD000010B5026852E8001F21F49071EE
:1047600042E80013002BF6D10E4B0268083252E8E3
:10477000001F194042E80014002CF6D1C16E012937
:1047800008D1026852E8001F21F0100142E800132E
:10479000002BF6D100212022C0F88C20C166416791
:1047A00010BD0000FEFFFFEF026852E8001F21F07D
:1047B000C00142E80013002BF6D10168083151E82E
:1047C000002F22F4000241E80023002BF5D1202124
:1047D000C0F88810704700002DE9F0430446806857
:1047E000D84E87B0D84B2168D4E90427D4F81CC030
:1047F00010430A68002547EA0C0738433240024359
:104800000A602068E268416821F440511143416028
:104810002268A1699A4201D0206A01439768DFF8B3
:104820002CC3CB4ECB4807EA0C070F439760216897
:10483000676ACA6A22F00F023A43CA622268B24229
:104840000ED1006800F03800182873D047DCB8B3E8
:10485000082879D010286FD178E028287ED17BE015
:10486000BD498A4209D1006800F00700062875D2C8
:10487000DFE800F0546A6C6E7072B8498A4209D160
:10488000006800F00700062868D2DFE800F0475D06
:104890005F616365B2498A4209D1006800F0070090
:1048A00006285BD2DFE800F03A5052545658AD4922
:1048B0008A420BD1006800F0070006284ED200E0C3
:1048C00010E0DFE800F02B4143454749A6498A4202
:1048D0000AD1006800F03800182839D0B7DD202848
:1048E000BBD13CE001203AE0A0498A4209D10068EE
:1048F00000F00700062831D2DFE800F01026282A51
:104900002C2E9B498A420BD1006800F00700062834
:1049100024D2DFE800F003191B1D1F2100201EE038
:104920009A421BD18B48001D006800F00700062842
:1049300014D202E00CE007E010E0DFE800F003052D
:1049400007090B0D02200AE0042008E0082006E019
:10495000102004E0202002E0402000E08020854973
:10496000DFF814829A42854A4FF400434FEA211738
:104970004FF000064ED110281AD006DC022809D0CC
:1049800004280BD008287CD10DE020283ED04028F8
:1049900077D13DE0FDF794FC014610E06846FDF755
:1049A000A1FC01990BE003A8FDF73EFD049906E088
:1049B0001068800605D51068C0F3C100C140002909
:1049C00070D0606A676838F8102007EB4703B1FBC6
:1049D000F2F0834255D8B0EB073F52D80023084687
:1049E0001946FBF7CDFC02467808130E120243EA83
:1049F000012110183A4671410023FBF7C1FC604ABF
:104A0000A0F5407191423CD821688FE03946D8E743
:104A10001946D6E7D4F81CC04FF6EF799C4546D12D
:104A2000082819D005DC58B101280CD0042875D10C
:104A30000DE0102815D0202835D040286ED134E064
:104A4000FEF7BAFB01E0FEF7C9FB014610E068463D
:104A5000FDF748FC01990BE003A8FDF7E5FC04997C
:104A600006E01068800604D51068C0F3C100C1409C
:104A7000C1B1636A606838F81330B1FBF3F14900E3
:104A800000E04BE001EB5001B1FBF0F0A0F11001B0
:104A9000494543D84FF6F0732168C0F342021840ED
:104AA000104343E043E03946E3E71946E1E70828CD
:104AB00019D005DC58B101280CD004282ED10DE006
:104AC000102815D020282BD0402827D12AE0FEF727
:104AD00073FB01E0FEF782FB014610E06846FDF73C
:104AE00001FC01990BE003A8FDF79EFC049906E088
:104AF0001068800604D51068C0F3C100C140B1B190
:104B0000636A606838F81330B1FBF3F101EB5001D0
:104B1000B1FBF0F0A0F11001494505D9012506E0EF
:104B20003946EDE71946EBE7216880B2C8600120FD
:104B3000A4F86A00A4F8680028466667A66707B06C
:104B4000BDE8F083F369FFCF000C0058FFF4FF11BC
:104B50000010014054440258004400400048004006
:104B6000004C00400050004000140140007800401C
:104B7000007C00400090D0032252000800440258FC
:104B8000FFFC0F0070B50446D0F8800000232225FA
:104B9000A165A4F85C20C4F89030C4F88C50F0B142
:104BA0001F49C163D4F880101E480864D4F88010EF
:104BB0001D48C864D4F8800003651346A56D2168BC
:104BC000D4F880002A462431FCF7CEFF38B11021FA
:104BD000C4F890102020C4F88C00012070BD20691A
:104BE00040B1216851E8000F40F4807041E80002B4
:104BF000002AF6D12068083050E8001F41F001017A
:104C000040E80012002AF5D12068083050E8001F63
:104C100041F0400140E80012002AF5D1002070BDAB
:104C2000B146000833470008634600082DE9F04705
:104C3000994617460D460446089E4FF0000833E09B
:104C4000701C31D0FDF71AFAA0EB0900B04218D859
:104C5000BEB120680168490726D5802D24D0402D9B
:104C600022D0C169C94309070DD408250562204631
:104C7000FFF770FDC4F89050012084F88480BDE8EF
:104C8000F0870320FBE7C069C04300050CD421680E
:104C90004FF4006008622046FFF75CFD2021C4F855
:104CA000901084F88480ECE72068C06935EA000041
:104CB00004D00020B842C3D00020E0E70120F9E78B
:104CC0002C4810B5FEF7D4FE2A480068C169C943D4
:104CD000C9064DD4102101622648FEF771FE264810
:104CE00026490068884234D024491831884230D09F
:104CF0002249303188422CD020494831884228D07E
:104D00001E496031884224D01C497831884220D025
:104D10001A49903188421CD01849A831884218D0CD
:104D20001749884215D016491831884211D01449C4
:104D3000303188420DD012494831884209D010499B
:104D40006031884205D00E497831884201D00C4943
:104D5000903140680B49C0F580720B4800F028F88C
:104D6000BDE8104007494FF480720248FFF7EAB8E7
:104D700010BD000040000024D401002410000240B7
:104D800010040240D40000244C020024FEE709076E
:104D900000284FEA116104DB00F1E02080F80014E4
:104DA000704700F00F0000F1E02080F8141D7047FC
:104DB0002DE9F041002416460F4605460AE0395D0C
:104DC000284600F065F9C0B2012802D1284600F05B
:104DD0003BF9641CB442F2DB0020BDE8F081000026
:104DE000393810B56C280C46C0B04BD2DFE800F063
:104DF000364A4A4A4A4A4A3A3F434A4A4A4A4A4A49
:104E00004A4A4A4A4A4A4A474C4F4A5356595C60B2
:104E100064686B6F73777B7E8184888B8F93969E9B
:104E2000A2A6AAB24A4AC7B5B84AC9BB4ACBCDCF97
:104E3000C14AC34A4A4A4AD14A4AD34AD54A4AD3BE
:104E40004ADC4A4A4A4A4AC3C3C5C54A4A4A4A4A48
:104E50004A4A4A4A4A4A4AC74ADEE0C757482022D5
:104E6000214672E0564838222146FBF700FB5548A0
:104E70003022214669E054485822214665E05348D3
:104E80002168016040B010BD216851486DE0514873
:104E90001022214659E021684F4841E021684F48DF
:104EA0003EE021684E483BE04E48102221464CE04F
:104EB0004D483022214648E04C485022214644E0EB
:104EC00021684B482CE04B487A2221463DE04A4875
:104ED0002022214639E049481822214635E0484839
:104EE0001022214631E02168464819E021684648F1
:104EF00016E02168454813E045481022214624E089
:104F0000216844480CE04448102221461DE04348F3
:104F10002422214619E02168414801E021684148E6
:104F2000016061684160A1688160ABE73E48402252
:104F300021460AE03D482822214606E03C48182246
:104F4000214602E03B481022214640B0BDE8104017
:104F5000FBF78DBA2168384807E02168374804E03C
:104F60002168374801E02168364801606168416086
:104F700088E71C221DE018221BE0482219E01422B9
:104F800017E0FF2215E0602213E0382211E098229A
:104F90000FE04C220DE034220BE02088ADF8000039
:104FA000A0788DF802006DE7402202E0222200E0A6
:104FB000442221466846FBF75AFA63E77C03002443
:104FC000A0030024D80300240804002414000024B3
:104FD0001800002460040024700400247C040024D1
:104FE0008804002494040024A4040024D804002489
:104FF0002805002434050024B0050024D005002431
:10500000E8050024F8050024040600241006002406
:105010001C0600242C060024380600244806002420
:105020006C0600247806002488060024C8060024A4
:10503000F006002408070024200000242800002493
:105040003000002438000024826800F1300110464E
:10505000FFF7C6BE30B5C3680022002B0BDD4368E6
:10506000072B08D1036A00F130045D1C0562195555
:10507000016AFF2901D9426030BDC168491EC16083
:1050800030BD00214160C1608160016241617047B3
:105090002DE9F0410A46416800250446092903D359
:1050A0004560E81EBDE8F08104F124004FF0FF37B1
:1050B0000A54616809294AD2DFE801F0050F131686
:1050C0001924272E3B002046FFF7DBFFFD2A2DD0B9
:1050D000FC2A3CD10120606028E00220C4E90102E2
:1050E00024E00320E260F6E704202261F3E70421D4
:1050F000A261FBF7ABFAA169884228D1E06818B336
:105100000520E8E70620E261E5E7E169072042EAD9
:105110000121E161606009E0E068082640B11146C4
:105120002046FFF797FFE06800B966600020B9E706
:105130006660FD2A0BD194F8201004F13000FBF7D3
:1051400071FAE169814202D101206560AAE738461F
:105150006560A7E71FB500240094019402940394AE
:10516000FDF716F801208DF80C001F218DF80810AE
:1051700087228DF809208DF80D008DF80000684613
:105180008DF80A408DF80E408DF8014001948DF89D
:105190000B408DF80F40FCF7CDFF0420FDF706F81B
:1051A000FCF77AFFFFF7AAF8FEF7F4FE154801684E
:1051B00041F00101016000680022114600F0010089
:1051C00000900B20FDF720F80B20FDF70FF8FEF7FD
:1051D0003BFF0D494FF48072A1F19400FEF7B2FE3F
:1051E00009484FF40074094D94380268106840F083
:1051F0001000106021462846FCF72CFF6420FCF7C5
:1052000001FEF7E7D8440258D400002400100258E9
:105210004FF04070E1EE100A7047000610160006CD
:105220001016010002000400060008000A000C002D
:10523000100020004000800000010101010307016F
:10524000000008040204080101010000000001023E
:10525000030401020304060708090000005EBCE223
:10526000613FDD83C29C7E20A3FD1F419DC3217F42
:10527000FCA2401E5F01E3BD3E6082DC237D9FC136
:10528000421CFEA0E1BF5D0380DE3C62BEE0025C2A
:10529000DF81633D7C22C09E1D43A1FF4618FAA416
:1052A00027799BC584DA3866E5BB5907DB85673902
:1052B000BAE406581947A5FB7826C49A653BD987F6
:1052C000045AB8E6A7F91B45C6987A24F8A6441AEA
:1052D00099C7257B3A6486D85B05E7B98CD2306ED6
:1052E000EDB3510F4E10F2AC2F7193CD114FADF3C2
:1052F000702ECC92D38D6F31B2EC0E50AFF1134DB6
:10530000CE90722C6D33D18F0C52B0EE326C8ED0A9
:10531000530DEFB1F0AE4C1291CF2D73CA94762895
:10532000ABF517490856B4EA6937D58B5709EBB581
:1053300036688AD495CB2977F4AA4816E9B7550B75
:1053400088D6346A2B7597C94A14F6A8742AC89669
:10535000154BA9F7B6E80A54D7896B350000211020
:10536000422063308440A550C660E77008812991CF
:105370004AA16BB18CC1ADD1CEE1EFF13112100277
:1053800073325222B5529442F772D662399318831F
:105390007BB35AA3BDD39CC3FFF3DEE36224433443
:1053A00020040114E664C774A44485546AA54BB56F
:1053B00028850995EEE5CFF5ACC58DD55336722617
:1053C00011163006D776F6669556B4465BB77AA7BF
:1053D00019973887DFF7FEE79DD7BCC7C448E55863
:1053E0008668A7784008611802282338CCC9EDD90F
:1053F0008EE9AFF9488969990AA92BB9F55AD44AB7
:10540000B77A966A711A500A333A122AFDDBDCCB5E
:10541000BFFB9EEB799B588B3BBB1AABA66C877C82
:10542000E44CC55C222C033C600C411CAEED8FFDAE
:10543000ECCDCDDD2AAD0BBD688D499D977EB66E56
:10544000D55EF44E133E322E511E700E9FFFBEEFFE
:10545000DDDFFCCF1BBF3AAF599F788F8891A981C0
:10546000CAB1EBA10CD12DC14EF16FE18010A100AA
:10547000C230E3200450254046706760B98398939A
:10548000FBA3DAB33DC31CD37FE35EF3B1029012FA
:10549000F322D2323542145277625672EAB5CBA566
:1054A000A89589856EF54FE52CD50DC5E234C3244A
:1054B000A01481046674476424540544DBA7FAB73A
:1054C0009987B8975FE77EF71DC73CD7D326F2369A
:1054D0009106B01657667676154634564CD96DC986
:1054E0000EF92FE9C899E9898AB9ABA944586548EA
:1054F00006782768C018E1088238A3287DCB5CDBDA
:105500003FEB1EFBF98BD89BBBAB9ABB754A545A39
:10551000376A167AF10AD01AB32A923A2EFD0FEDA5
:105520006CDD4DCDAABD8BADE89DC98D267C076C89
:10553000645C454CA23C832CE01CC10C1FEF3EFF79
:105540005DCF7CDF9BAFBABFD98FF89F176E367ED9
:10555000554E745E932EB23ED10EF01E0000000038
:10556000963007772C610EEEBA51099919C46D0770
:105570008FF46A7035A563E9A395649E3288DB0ECB
:10558000A4B8DC791EE9D5E088D9D2972B4CB609AE
:10559000BD7CB17E072DB8E7911DBF906410B71D8B
:1055A000F220B06A4871B9F3DE41BE847DD4DA1AC4
:1055B000EBE4DD6D51B5D4F4C785D38356986C13F5
:1055C000C0A86B647AF962FDECC9658A4F5C01146E
:1055D000D96C0663633D0FFAF50D088DC8206E3B4C
:1055E0005E10694CE44160D5727167A2D1E4033C5E
:1055F00047D4044BFD850DD26BB50AA5FAA8B53585
:105600006C98B242D6C9BBDB40F9BCACE36CD83273
:10561000755CDF45CF0DD6DC593DD1ABAC30D9261A
:105620003A00DE518051D7C81661D0BFB5F4B4211D
:1056300023C4B3569995BACF0FA5BDB89EB802281A
:105640000888055FB2D90CC624E90BB1877C6F2F9F
:10565000114C6858AB1D61C13D2D66B69041DC769A
:105660000671DB01BC20D2982A10D5EF8985B17173
:105670001FB5B606A5E4BF9F33D4B8E8A2C9077822
:1056800034F9000F8EA8099618980EE1BB0D6A7FB9
:105690002D3D6D08976C6491015C63E6F4516B6B72
:1056A00062616C1CD83065854E0062F2ED95066C27
:1056B0007BA5011BC1F4088257C40FF5C6D9B0659C
:1056C00050E9B712EAB8BE8B7C88B9FCDF1DDD62F9
:1056D000492DDA15F37CD38C654CD4FB5861B24D5F
:1056E000CE51B53A7400BCA3E230BBD441A5DF4A29
:1056F000D795D83D6DC4D1A4FBF4D6D36AE96943EC
:10570000FCD96E34468867ADD0B860DA732D044496
:10571000E51D03335F4C0AAAC97C0DDD3C710550C1
:10572000AA41022710100BBE86200CC925B5685768
:10573000B3856F2009D466B99FE461CE0EF9DE5EB1
:1057400098C9D9292298D0B0B4A8D7C7173DB35962
:10575000810DB42E3B5CBDB7AD6CBAC02083B8EDF3
:10576000B6B3BF9A0CE2B6039AD2B1743947D5EA00
:10577000AF77D29D1526DB048316DC73120B63E32F
:10578000843B64943E6A6D0DA85A6A7A0BCF0EE48E
:105790009DFF099327AE000AB19E077D44930FF049
:1057A000D2A3088768F2011EFEC206695D5762F740
:1057B000CB67658071366C19E7066B6E761BD4FE7D
:1057C000E02BD3895A7ADA10CC4ADD676FDFB9F95A
:1057D000F9EFBE8E43BEB717D58EB060E8A3D6D61C
:1057E0007E93D1A1C4C2D83852F2DF4FF167BBD14A
:1057F0006757BCA6DD06B53F4B36B248DA2B0DD84D
:105800004C1B0AAFF64A0336607A0441C3EF60DFEF
:1058100055DF67A8EF8E6E3179BE69468CB361CBD8
:105820001A8366BCA0D26F2536E2685295770CCCFD
:1058300003470BBBB91602222F260555BE3BBAC53E
:10584000280BBDB2925AB42B046AB35CA7FFD7C22F
:1058500031CFD0B58B9ED92C1DAEDE5BB0C2649B20
:1058600026F263EC9CA36A750A936D02A906099C53
:105870003F360EEB8567077213570005824ABF95C6
:10588000147AB8E2AE2BB17B381BB60C9B8ED29249
:105890000DBED5E5B7EFDC7C21DFDB0BD4D2D386A0
:1058A00042E2D4F1F8B3DD686E83DA1FCD16BE8113
:1058B0005B26B9F6E177B06F7747B718E65A0888E4
:1058C000706A0FFFCA3B06665C0B0111FF9E658F75
:1058D00069AE62F8D3FF6B6145CF6C1678E20AA01F
:1058E000EED20DD75483044EC2B30339612667A7A5
:1058F000F71660D04D476949DB776E3E4A6AD1AEF4
:10590000DC5AD6D9660BDF40F03BD83753AEBCA982
:10591000C59EBBDE7FCFB247E9FFB5301CF2BDBDEF
:105920008AC2BACA3093B353A6A3B4240536D0BAF8
:105930009306D7CD2957DE54BF67D9232E7A66B395
:10594000B84A61C4021B685D942B6F2A37BE0BB442
:10595000A18E0CC31BDF055A8DEF022D7C59000868
:105960000000002440000000D4020008BC590008D8
:105970004000002438370000F00200080100000059
:1059800010000000000000000090D0030090D00341
:105990000000000000000000000000000000000007
:1059A00000000000000000000000000000000000F7
:0C59B000000000000000000000000000EB
:040000050800029954
:00000001FF
